:020000040800F2
:10000000F81800206D02000871490008A541000899
:10001000FD48000805190008915300080000000081
:10002000000000000000000000000000EB49000894
:10003000D51A000800000000DD490008494C0008FE
:10004000870200088702000887020008870200086C
:10005000870200088702000887020008870200085C
:10006000870200088702000887020008D1190008EB
:10007000870200088702000887020008870200083C
:1000800087020008DD19000887020008151900081A
:100090000919000887020008870200088702000883
:1000A000870200088702000887020008870200080C
:1000B00087020008870200088702000887020008FC
:1000C00087020008870200088702000887020008EC
:1000D0008702000879530008870200088702000899
:1000E00087020008870200088702000887020008CC
:1000F00087020008870200088702000887020008BC
:1001000087020008870200088702000887020008AB
:10011000870200088702000887020008870200089B
:1001200087020008E9190008870200088702000812
:100130008702000887020008870200082D190008BE
:1001400021190008870200088702000887020008BA
:10015000F5190008011A00088702000885530008F5
:10016000870200088702000887020008870200084B
:1001700087020008870200088702000800000000CC
:100180008702000887020008ED4F0008F94F0008B9
:10019000870200088702000887020008870200081B
:1001A00000000000000000008702000800F002F8D4
:1001B00000F04CF80AA090E8000C82448344AAF1B5
:1001C0000107DA4501D100F041F8AFF2090EBAE8B3
:1001D0000F0013F0010F18BFFB1A43F0010318477B
:1001E0002065000040650000103A24BF78C878C13F
:1001F000FAD8520724BF30C830C144BF04680C602D
:10020000704700000023002400250026103A28BF74
:1002100078C1FBD8520728BF30C148BF0B60704778
:10022000662906F01082642900F0C480002070471F
:100230001FB506F0FEF900F023FC040000200021A9
:1002400005F086FCE0601FBD10B510BD00F030FD6C
:100250001146FFF7EDFF05F0B3FA00F04EFD03B4D1
:10026000FFF7F2FF03BC05F0A6F90000094880473C
:1002700009480047FEE7FEE7FEE7FEE7FEE7FEE788
:10028000FEE7FEE7FEE7FEE704480549054A064BA0
:1002900070470000E14C0008AD010008F812002092
:1002A000F8180020F8140020F8140020704753EAD2
:1002B000020C00F069802DE9F04B4FF00006002B96
:1002C0001FBFB3FA83F503FA05F424FA05F65E407E
:1002D00012BF1643B2FA82F502FA05F4C5F1200501
:1002E0001EBF22FA05FC44EA0C04203556EA044CF1
:1002F0004FEA144418BF641C4FF000084FF0000987
:10030000904271EB030C39D3002919BFB1FA81F780
:1003100001FA07F6B0FA80F700FA07F6C7F12007EE
:100320001EBF20FA07FC46EA0C062037B6FBF4FC99
:10033000A7EB0507103F07F01F0BCBF120060CFAC7
:100340000BFB2CFA06F644BFB3460026202FA4BFB1
:100350005E464FF0000B5BEA060C08BF4FF0010B46
:1003600019EB0B09ABFB027C48EB0608C01B06FB34
:1003700002CC0BFB03CC71EB0C01C1E70B46024630
:1003800041464846BDE8F08B13B54FF000004FF0F2
:100390000001AFF30080BDE81C4070470FB4044972
:1003A00010B503AA029800F059FB10BC5DF814FBCD
:1003B0001C0000202DE9F041064600241068752934
:1003C000314616A510D0AFF30080002802DA404273
:1003D00013A507E031688A0701D512A502E0490795
:1003E00004D511A5012401E0AFF3008000210A2209
:1003F00006F1240709E0B0FBF2FCB0FBF2F302FBCC
:100400001C00303078541846491C0028F3D123468C
:100410002A463046BDE8F04100F0BAB800000000BE
:100420002D0000002B000000200000002DE9F04707
:100430004FF0000A89460446C0F820A02046E16833
:100440008847002876D0252806D0D4E90121904796
:10045000206A401C2062F1E7E168204600258847B9
:10046000C4F81CA006460027C4F818A02A2E09D0FC
:10047000304605F099F838B304EB8708303EC8F8E9
:10048000186019E059F8041B204604EB87029161BB
:10049000E1688847012F064618D1E069002820DA74
:1004A00025F020051DE0D8F8180000EB800006EBD1
:1004B00040003038C8F818002046E16888470646F2
:1004C00005F072F80028EED1012F0AD02E2E08D1A7
:1004D0002046E16888477F1C0646022F45F020052C
:1004E000C4DBA069002803DA404245F00105A061A1
:1004F000E80701D025F01005B6B1A6F14100192892
:1005000002D8203645F400654A463146204625602B
:100510004D46FFF785FE58B1012806D0ED1D25F0A8
:10052000070000F1080989E704E005F1040985E7FF
:1005300030468AE7206ABDE8F0874FF0000200B538
:10054000134694469646203922BFA0E80C50A0E8F6
:100550000C50B1F12001BFF4F7AF090728BFA0E8A4
:100560000C5048BF0CC05DF804EB890028BF40F870
:10057000042B08BF704748BF20F8022B11F0804FB2
:1005800018BF00F8012B70477047704770477047DD
:100590002DE9F0470D4699469246044600F124089D
:1005A0000168880604D5E06921F01001216000E0AF
:1005B0000120A84201DD471B00E00027A1697A194C
:1005C00002EB0900081AA0612078C00602D4204678
:1005D000AFF30080002608E0D4E901211AF80600F4
:1005E0009047206A401C761C20624E45F4DB207840
:1005F000C0060AD52046AFF3008006E0D4E9012109
:1006000030209047206A401C2062381EA7F1010765
:10061000F4DC07E0D4E9012118F805009047206ACE
:10062000401C2062281EA5F10105F3DC2046AFF333
:1006300000802078000602D50220BDE8F087012066
:10064000FBE770472DE9FF4F0C461E464FF0FF3782
:100650008BB0D2E90001DDF860800A908A46C1F3D0
:100660000A5505B93D46002108464FF00000BAF191
:10067000000F00F4400005DA00EB80004FF4400169
:1006800001EA50004FEA9059B9F1010F00DDB94677
:100690000A9850EA4A000ED044F61050A5F2FF35F1
:1006A00045432F14B8F1000F1ED07542291E1EDDE0
:1006B000C9F100021CE0B8F1010F4FF0000001D0B9
:1006C000302103E0F24305E02154401CB042FBDB43
:1006D00030460022002121540B99C1F80880C1E95D
:1006E00000200FB0BDE8F08FBD1B6D1CDEE74A4651
:1006F00000DA694206A800F065FA06AB93E8070045
:1007000003AB83E8070050460A9900F03FFB8DE8F1
:100710000700A0F500501F3800900398002D09DD58
:1007200042F21F014A46084403A90390684600F0BC
:100730009EFD08E0A0F500504A461F3803A903902B
:10074000684600F0A8FD8DE807000004000C03D007
:100750004FF0FF30410800E01046B8F1000F03D021
:100760000022009215461EE0751E05D400F08CF99B
:10077000303262556D1EF9D5B3460122084302D0CE
:1007800000227F1C04E02078302801D100227F1E47
:10079000002A099786D01DE0112D07DA00F074F9C0
:1007A000303262556D1C50EA0102F5D1084302D087
:1007B0000098C8B10EE00021681E05E0235C625C71
:1007C00063542254401E491C8142F7DBAB46A81BF0
:1007D000401E0990002004F80B000B98099AC0F8FD
:1007E0000880C0E9002B7CE711264FF0000859E78C
:1007F0002DE9F04F88460446D21D22F0070191B042
:10080000D1E90001CDE90A0104F0A6FE02460B98E9
:10081000C00F01D02D2007E02068810701D52B20D3
:1008200002E0202101EAC000032A099001D0072A32
:1008300005DB03464146204600F084F90BE12078B1
:10084000800601D5E06900E00620B8F1650F814619
:1008500006D0B8F1660F18D0B8F1670F70D131E04B
:100860000020B9F1110F009001DB112301E009F123
:1008700001030AAA01A90CA8FFF7E4FEDDE90C7048
:10088000002609F10105834647E001204B46009010
:100890004FF000470AAA01A90CA8FFF7D3FEDDE933
:1008A0000DB00C995D46002610B909F101000D1834
:1008B000B9EB050003D4C0F1FF3609F10105A5EB42
:1008C00009002BE0B9F1010F01DA4FF00109002016
:1008D000B9F1110F0090484601DD112300E00346F5
:1008E0000AAA01A90CA8FFF7ADFEDDE90C704D4680
:1008F00000268346207800070AD4AB4500DA5D461F
:1009000001A8012D04DD411911F8011C302907D07F
:100910004F4502DA17F1040F04DA012082460FE096
:100920006D1EEEE7002F02DCED1B3E4403E0781C59
:10093000A84200DD7D1CB81B00F1010A4FF0004702
:100940002078000703D4AA4501DB4FF0FF3A0021CD
:10095000B7F1004F0DF143088DF8431024D0022069
:100960002B23002F01DA7F422D230A21021EA0F142
:10097000010000DC5FB197FBF1FC97FBF1F201FB9A
:100980001C7C17460CF1300C08F801CDEEE7A8F1FD
:10099000010003702188090501D5452100E065218A
:1009A000A0F1010800F8011C09980FA9A1EB0807A4
:1009B000FF1D00B10120411901EBEA70A169384423
:1009C000081A401EA0612078C00602D42046AFF36A
:1009D0000080099828B1D4E901219047206A401C81
:1009E00020622078C00622D52046AFF300801EE0AA
:1009F000002E04DBB34502DD01A8805D00E030205D
:100A0000D4E901219047206A401C2062761CAAF19B
:100A100001005FEA000A0AD100F032F8C0680168FC
:100A2000405CD4E901219047206A401C2062281EC6
:100A3000A5F10105DCDC07E0D4E9012118F8010B80
:100A40009047206A401C2062381EA7F10107F3DCA2
:100A50002046AFF30080032011B043E6074B70B58A
:100A60000D467B4400F05BF80446284600F018F978
:100A700010B14FF0FF3070BD204670BD774B0000C5
:100A800000487047B812002030B5B0F10A024FEAB2
:100A9000900E71F100034EEA817EB0EB0E0061EB27
:100AA00091014FEA101E4EEA017E10EB0E0041EB61
:100AB00011114FEA102E4EEA016E10EB0E0041EBC1
:100AC00011214FEA104E4EEA014E10EB0E0041EBA1
:100AD0001141401841F100014FEAD00040EA417055
:100AE0004FEAD10110EB80054FEA810444EA90748B
:100AF00044EB01046D1944EB0404521BA3414FF075
:100B0000000348BF0A3200D530BD401C41F100014E
:100B100030BD000001694A1C02610878704700B5C9
:100B20008FB0CDE901310021059105497944CDE926
:100B3000031011466846FFF779FC0FB000BD0000B6
:100B4000E5FFFFFF2DE9F0411F460446032601683B
:100B5000072A01F4006004DB08B116A505E016A51C
:100B600003E008B115A500E015A521F010002060F4
:100B7000A069C01EA0610FB1401EA0612046AFF366
:100B800000804FB1D4E9012138469047206A401CCB
:100B90002062C01C206206E0206AFAE7D4E9012145
:100BA00015F8010B9047761EF8D22046AFF300806F
:100BB000BDE8F0814E414E006E616E00494E460028
:100BC000696E66002DE9F047814616468AB03348C3
:100BD00078440DC88DE80D0030487844801C03AC83
:100BE0000DC884E80D0041F69B300844372190FB86
:100BF000F1F290FBF1F5A5F1800501FB12041B3C1D
:100C000002D56442012000E00020DFF890A0804679
:100C10000027FA44AAF1BE0A0DE0E00709D03246E7
:100C2000684607EB47010AEB810100F034FB8DE8D1
:100C3000070064107F1C002CEFD1184F7F44AC3F9D
:100C400018E0E80714D007EB04100DF1180A90E83B
:100C50000E008AE80E00C068F04201D19819089091
:100C6000324606A903A800F016FB03AB83E8070091
:100C70006D10641C002DE4D132466946B8F1000FB6
:100C800003A802D000F0F3FA01E000F004FBC9E988
:100C90000001C9F808200AB0BDE8F087145B000025
:100CA000007B00F0800070470048704798120020D9
:100CB0007546FFF7F9FFAE4605006946534620F03A
:100CC0000700854618B020B5FFF7DEFABDE82040E2
:100CD0004FF000064FF000074FF000084FF0000BF8
:100CE00021F00701AC46ACE8C009ACE8C009ACE8AB
:100CF000C009ACE8C0098D46704710B50446AFF393
:100D000000802046BDE81040FFF7A9BA4FF0013C33
:100D100050F8042B51F8043B9A4221D1A2EB0C036A
:100D2000934313EACC1317D150F8042B51F8043B2A
:100D30009A4215D1A2EB0C03934313EACC130BD1C7
:100D400050F8042B51F8043B9A4209D1A2EB0C0352
:100D5000934313EACC13DBD04FF00000704700BF81
:100D6000D01A01BAB1FA81F101F0180122FA01F0AA
:100D7000CB40C1F12001DBB2C0B2C01A2CFA01F3A2
:100D8000D11A914311EAC311E6D170475FEA400CD2
:100D900008BF91F0000F4FEA8C234FEAC12243EACB
:100DA00051514FEA1C5018BF00F5F0404FEA300097
:100DB00018BF41F000415FEA6C5C00F02980BCF193
:100DC000FF3F08BF40F080407047130C06BF12047D
:100DD0004FF0100C4FF0000C130E04BF12020CF178
:100DE000080C130F04BF12010CF1040C930F04BF85
:100DF00092000CF1020CD30F04BF52000CF1010C55
:100E000011464FF00002A0F11F00A0EB0C0070474C
:100E100011F0004F08BF704731F000413FF4D5AFEB
:100E20000B0C06BF09044FF0100C4FF0000C0B0E1A
:100E300004BF09020CF1080C0B0F04BF09010CF1EF
:100E4000040C8B0F04BF89000CF1020CCB0F04BF04
:100E500049000CF1010CCCF12003A0EB0C0022FAAC
:100E600003F302FA0CF241EA030100F101007047BA
:100E700020F07F4C80EA030023F07F47ACEB0703B0
:100E800003F57C5300F0004003F1FF032DE9804996
:100E90004FEA154B09B44FEA144325EA0B4E24EAF6
:100EA00003480FF2042606EB132749083E785FEA51
:100EB000320203FB0667C7F5000707FB06F64FEA99
:100EC00054374FEAD64606F1020607FB066CCCF112
:100ED000005C4FEA1C472CEA074C07FB06F40CFBAE
:100EE00006F504EB15464FEA961634BF00204FF086
:100EF00000404FEAD13706FB07FC4FEA1C4C0CFBC5
:100F00000BF7D21B03FB0CF761EB07010CFB0EF791
:100F1000B0EB074072EB17420CFB08F734BFA2EBB3
:100F20000742B2EB074261EB17414FEA0C444FEA2C
:100F3000910706FB07FC4FEA1C4C0CFB0BF7B0EBD0
:100F4000C74072EB573203FB0CF734BFA2EBC7422A
:100F5000B2EBC74261EB57310CFB0EF7B0EBC700A9
:100F600072EB57720CFB08F734BFA2EBC702B2EB6F
:100F7000C70261EB5771039F4FEA816141EA921109
:100F800004EBCC044FEAD1374FEA826206FB07FC40
:100F900042EA90124FEA80604FEA1C4C0CFB0BF7C0
:100FA000D21B03FB0CF761EB07010CFB0EF7B0EB58
:100FB000074072EB17420CFB08F734BFA2EB074265
:100FC000B2EB074261EB17414FEA8C554FEA9107AC
:100FD00004EB9C2406FB07FC4FEA1C4C0CFB0BF7B4
:100FE000B0EBC74072EB573203FB0CF734BFA2EBF8
:100FF000C742B2EBC74261EB57310CFB0EF7B0EBC7
:10100000C70072EB57720CFB08F734BFA2EBC702A4
:10101000B2EBC70261EB577115EB4C254FEA8161CA
:1010200041EA92114FEA82624FEAD13742EA9012C6
:1010300006FB07FC44F100044FEA80604FEA1C4CB9
:101040000CFB0BF7D21B03FB0CF761EB07010CFB4E
:101050000EF7B0EB074072EB17420CFB08F734BFFA
:10106000A2EB0742B2EB074261EB174115EB1C15EF
:101070004FEA813141EA92414FEA823242EA90429C
:101080004FEA80304FEA0C7644F1000448EA03430B
:101090004EEA0B484FF0000EB2EB080C71EB030761
:1010A00024BF624639464EEB0E0E4FF0000B00187F
:1010B000524149414BEB0B0BB2EB080C71EB0307B0
:1010C0007BF1000B24BF624639464EEB0E0E4FF00B
:1010D000000B0018524149414BEB0B0BB2EB080CD3
:1010E00071EB03077BF1000B24BF624639464EEBE0
:1010F0000E0E51EA020718BF46F0010616EB0E76F7
:1011000055F1000254F1000103D5BDE88901BDE8A5
:101110000088BDE88901BDE80048B619524141EB9D
:101120000101A3F10103704780807F7E7D7C7B7A83
:101130007978777676757473727171706F6E6E6D83
:101140006C6C6B6A6A696868676666656464636329
:1011500062616160605F5F5E5E5D5D5C5C5B5B5AAF
:101160005A5959585857575656555555545453531C
:1011700052525251515050504F4F4F4E4E4D4D4D77
:101180004C4C4C4B4B4B4A4A4A49494948484847C2
:101190004747474646464545454444444443434300
:1011A0004342424242414141002B26D4770021D0A4
:1011B0001CB54FEA370703B44FF010004FF0100191
:1011C0004FF000000FBCBDE810400BF1010BBBF16C
:1011D000010F08BF5FEA170722BF12F1010211F1E8
:1011E00001014FF0004143F1000300F0004043EAE9
:1011F00000007047F9D35708DAE746EA064613F1CC
:10120000400F4FEA16461FDD13F1200FDFBF1643D4
:101210000A46002120335B42C8D0C3F1200746EACA
:10122000064602FA07F74FEA164646EA0706C3F1F2
:10123000200722FA03F201FA07F721FA03F14FF02F
:10124000000342EA0702B1E746EA020646EA06461A
:101250004FEA164646EA0106BCBF46EA0646360C89
:101260004FF000034FF000024FF000019EE72DE920
:10127000C048934630B491E8380007C831EA400CC2
:1012800048BF34EA430C03D5FFF7F2FDFFF78CFFAC
:10129000F0BCBDE800882DE9C048934630B491E821
:1012A000380007C810F0804F08BF13F0804F03D1FB
:1012B00000F005F8FFF778FFF0BCBDE8008820F0EB
:1012C0007F4780EA030023F07F4C07EB0C03A3F574
:1012D0007C5300F00040A3F1FE0392F0000F00F0F9
:1012E000B38095F0000F00F077802DE901494FEAB7
:1012F00011404FEA144621EA004800FB06FC24EAAC
:10130000064708FB06F607FB08F800FB07F718EB93
:1013100006484CEB164C4FEA124B18EB07484FEAC5
:1013200015464CEB174022EA0B4E0BFB06FC25EA58
:1013300006470EFB06F607FB0EFE0BFB07F71EEB40
:10134000064E4CEB164C4FF000061EEB074E4CEBD6
:10135000174B18EB0B0840F1000018EB0E0B58EB85
:10136000000840F100008F1A4FF000013CBFC94354
:10137000661B14BFB5EB040C00213CBFC943F61B30
:101380004FEA17444EEA8E0E27EA04454FEA1C47FF
:1013900004FB07622CEA074C05FB07F70CFB05F67C
:1013A00004FB0CFC16EB074642EB174216EB0C460F
:1013B00042EB1C421BEB060658EB0202414146EA97
:1013C0009E0601D5BDE80189B619524141EB0101E4
:1013D000A3F10103BDE801894FEA14454FEA114723
:1013E00024EA054621EA074C05FB07F406FB07F74C
:1013F0000CFB06F105FB0CFC11EB074144EB174419
:101400004FEA124711EB0C4144EB1C4422EA074C13
:1014100005FB07F206FB07F70CFB06F605FB0CFCC9
:1014200016EB074642EB174216EB0C4642EB1C4507
:101430006A1854F1000148BF7047B619524141EB98
:101440000101A3F10103704795F0000F37D04FEA77
:1014500011424FEA144721EA024624EA074C02FBF4
:1014600007F106FB07F70CFB06F402FB0CFC14EB80
:10147000074441EB17414FEA154714EB0C4441EB8D
:101480001C4125EA074C02FB07F506FB07F70CFB9E
:1014900006F602FB0CFC16EB074645EB174516EB70
:1014A0000C4645EB1C42121951F1000148BF704730
:1014B000B619524141EB0101A3F1010370474FEA14
:1014C00014454FEA114724EA054621EA074C05FB7B
:1014D00007F106FB07F70CFB06F24FF0000605FBD1
:1014E0000CFC12EB074241EB174112EB0C4251EBA3
:1014F0001C4148BF7047921841EB0101A3F1010361
:101500007047000070B54A4E4A4D2DED028B96F89B
:10151000504095ED000B9FED488B51EC100B53ECB8
:10152000182B04F069FBC5E9000195ED020B53ECA3
:10153000182B51EC100B04F05FFBC5E90201601E93
:10154000182806D8B2EE0E0A85ED040A0F2004F022
:10155000D5FAA4F11A00092806D8B1EE0C0A85EDD7
:10156000040A072004F0CAFAA4F12400092806D8C6
:10157000B1EE040A85ED040A052004F0BFFAA4F1D7
:101580002E00092806D800209FED2D0A85ED040ABB
:1015900004F0B4FAA4F13800092807D8B9EE040A17
:1015A00085ED040A6FF0040004F0A8FAA4F14200EB
:1015B000092807D8B9EE0C0A85ED040A6FF0060079
:1015C00004F09CFA4C3C182C07D8BAEE040A85EDBE
:1015D000040A6FF0090004F091FA706D194C0A28A2
:1015E00003D030B101280CD00EE0607860B9012042
:1015F00003E06078012807D102206070BDEC028B07
:1016000070BD607802280FD060780328F6D13221AF
:10161000312004F00BFA00206070A078401CA0700C
:101620002078401C2070E9E703206070EFE700009D
:10163000A8110020C8100020000000000000104089
:10164000000000003800002070B5924C2DED068B94
:10165000207808B9FFF756FF2078012801D1FFF75D
:1016600051FF2078022801D1FFF74CFF20789FED31
:101670008AABDFED8B8A4FF47A759FED8A9A9FEDE6
:101680008A8A03281CD103F0AAF92946372004F0DE
:10169000CDF9B0EE491AB0EE4A0AF0EE6A0A03F04C
:1016A000A9FEB0EE681A9FED810B03F0A3FEB0EE29
:1016B000481A9FED800B03F09DFE2078401C20709F
:1016C000C0B2042802D101F031FB60602078052807
:1016D0000AD101F02BFB6168401A40F2DC518842CC
:1016E00002D92078401C2070207806280CD103F005
:1016F00076F92946372004F099F94FF47A6001F021
:10170000D9F92078401C2070C0B2072816D103F008
:101710000BFAB0EE481A9FED690B03F06BFEB0EECA
:10172000681A9FED680B03F065FEB0EE491A9FED55
:10173000670B03F05FFE2078401C2070C0B20828C1
:1017400002D101F0F3FA60602078092808D101F095
:10175000EDFA6168401AA84202D92078401C207036
:1017600020780A2801D1FFF7CDFE20780B2801D17F
:10177000FFF7C8FE20780C2801D1FFF7C3FE2078C0
:101780000D2801D1FFF7BEFE20780E2801D1FFF70A
:10179000B9FE20780F2820D103F021F929463720FF
:1017A00004F044F9B0EE481A9FED4A0B03F022FE14
:1017B000B0EE681A9FED490B03F01CFEB0EE481A1C
:1017C0009FED480B03F016FEB0EE491A9FED470B54
:1017D00003F010FE2078401C2070C0B2102802D107
:1017E00001F0A4FA606020784FF4FA65112808D15E
:1017F00001F09CFA6168401AA84202D92078401C86
:101800002070207812280CD103F0E9F829463720FF
:1018100004F00CF940F6B83001F04CF92078401C87
:101820002070C0B2132816D1B0EE491A9FED310BCB
:1018300003F0E0FDB0EE481AB0EE4A0AF0EE6A0A94
:1018400003F0D8FDB3EE0E1A9FED2C0B03F0D2FD82
:101850002078401C2070C0B2142802D101F066FA32
:1018600060602078152809D101F060FA6168401A9B
:10187000B0F5FA7F02D92078401C20702078162815
:1018800005D1BDEC068BBDE87040FFF73BBEBDEC5B
:10189000068B70BD38000020000000000030814041
:1018A00000007042000070C2000000000000000054
:1018B00000689AC000000000007084C000000000B2
:1018C00000808B40000000000050944000000000A9
:1018D00000308DC000000000005084400000000077
:1018E00000E892C00000000000406FC0000000004F
:1018F00000408FC00000000000F0844000000000A5
:1019000000589640FEE70000014800F048BC000087
:1019100040000020014800F042BC000040000020D0
:10192000014800F03CBC000068000020014800F0C5
:1019300036BC00006800002010B50A88C2F30A0215
:10194000A2F5806202804A788B78D20842EA43127C
:10195000C2F30A02A2F5806242808A78CB789209AB
:1019600042EA83020B7942EA8322C2F30A02A2F519
:10197000806282800A794B79520842EAC312C2F32C
:101980000A02A2F58062C2804A79920902724A79FB
:10199000C2F301124272CA8842810A8982814A894D
:1019A000C2810A7B02744A7B4274C989418201F078
:1019B000BDF9064C20606168401AB0F5FA7F04D981
:1019C000522003F0BFFE2068606010BD20000020A0
:1019D000014800F0FDBE0000C0030020014800F0F7
:1019E000F7BE000060030020014800F0F1BE0000D7
:1019F00080040020014800F0EBBE0000200400201D
:101A0000014800F0E5BE0000E00400200168182352
:101A1000CAB2103AB2FBF3F2054B6FF30901032A85
:101A20009B5CC36500D9091D8165084670470000AD
:101A30004A66000810B5014600208B698A6A4FF09B
:101A4000C07453B1B3F5005F15D072B1012A0CD048
:101A5000022A0AD0032A09D104E01AB1012A06D0C9
:101A6000022A03D1C96AC90100D5012010BDC96A83
:101A7000A142FAD010BD002AF7D0012AF2D0022AE2
:101A8000F3D0032AF3D010BD30B50468256825F4DF
:101A900080252560046863608368402B036803D059
:101AA00099600068C26030BD9A600068C16030BD56
:101AB00012220249024802F0A5BA00004C0500209B
:101AC000D8020020024901F15000FFF735BF0000A5
:101AD0004C0500207047000030B585B000F046F896
:101AE0001A4C94ED040ABDEEC00A10EE100A40B282
:101AF00004F004F803F0C8FC94ED020B51EC100B59
:101B000004F03CF804F084FA94ED000B054651EC27
:101B1000100B04F07DFA294603F07CF800F0B0F8D1
:101B2000206904F015FD0A4A02AB127883E8070029
:101B300094ED020B07A08DED000B94ED000B53EC20
:101B4000102BFEF72BFC05B030BD0000C8100020A4
:101B5000380000204C693A252E32662C252E32663C
:101B60002C252E32662C25640A0000002DE9F04158
:101B70002DED048B01F0DAF8384CD4F8D410401A6B
:101B8000642862D9364D287A032849D101F0CEF86D
:101B9000C4F8D400B5F9020004F069FA0F4647EC26
:101BA000100B9FED308B064653EC182B51EC100BAD
:101BB00004F0D6F89FED2D9B53EC192B04F0AAFAF4
:101BC00094ED001B53EC112B04F016F847EC106B4E
:101BD000C4E9000153EC182B51EC100B04F0C0F8D1
:101BE00053EC192B04F096FA94ED021B53EC112BD5
:101BF00004F002F8C4E9020194F82C0080B9B5F9A8
:101C0000040004F034FA53EC182B04F0A9F89FED0B
:101C1000191B53EC112B04F07DFA03F0BBFF20617C
:101C2000287A012807D002280FD1BDEC048BBDE82B
:101C3000F041FFF709BD687A1049012809D003284F
:101C400009D0022801D100200870BDEC048BBDE84A
:101C5000F0810F20F8E70B20F6E70000C810002005
:101C60009C0500200000000000A08440000000004F
:101C700000005E400000000000004E4038000020E0
:101C800070B500262DED068B9FED408B9FED419B9F
:101C90009FED42AB434C00BFC6EB461004EBC005C2
:101CA00053EC182B95ED080B51EC100B04F058F881
:101CB00053EC192B04F02EFA53EC1A2B04F050F8C5
:101CC00003F068FF00EE100AD5F8F01005F190005F
:101CD00088472078012805D1D5F8CC0004F038FCDD
:101CE000C5E90C01761CF6B2022ED5D300269FED75
:101CF0002E8B00BFC6EB461004EBC00553EC182B2F
:101D000095ED0C0B51EC100B04F0C8F903D29FEDCC
:101D1000280A85ED170AB5F90800D5F8881000EEF5
:101D2000100A05F12800B8EEC00A8847761CF6B202
:101D3000022EDFD32078022825D094F8F80002285C
:101D400021D094EDD30ABDEEC00A10EE100A94ED36
:101D5000950A03B2BDEEC00A10EE100A94ED570AC0
:101D600002B2BDEEC00A10EE100A94ED190ABDECE5
:101D7000068BBDEEC00A01B2BDE8704010EE100A3D
:101D800000B202F0DDBEBDEC068B70BD00000000AD
:101D900000FFBF400000000000807640000000000F
:101DA00000003440900900200000000000001440B2
:101DB000000000002DE9F05F2DED068B002702F0FA
:101DC000C5FD40F29A2131A0FEF7E8FAFFF770FE58
:101DD00003F0F6FB02F00AFE03F080FE03F036FD8E
:101DE000DFF8B8909FED2E8ADFED2E8A9FED2EAAA8
:101DF000DFED2EAA9FED2E9B4FF0020B4FF0010A54
:101E000041F28838C7EB471109EBC10409F831B03A
:101E100004F1280684F801A0304603F0E3FD04F144
:101E20009005284603F0DEFD30464FF48046D4F896
:101E300084C0F0EE481AB0EE681AF0EE4A0AB0EE2E
:101E40006A0A434632460121E0472846D4F8EC505E
:101E5000F0EE481AB0EE481AF3EE090AB0EE480A5E
:101E6000434632460021A8477F1C84ED0C9BFFB2FD
:101E700084ED269B022FC5D302F07CFD02F040FDCD
:101E8000BDEC068BBDE8F05F02F04EBE7465737466
:101E9000207072696E74662025640A009009002023
:101EA00000000000CDCCCC3DCDCC4C3F00004842E2
:101EB000000000000000000072B6FEE790F820204D
:101EC000012A07D0022A05D0416A41F480214162EB
:101ED00001207047006842690A4342610020704750
:101EE000F0B590F820500468A468012D05D0022DAB
:101EF00003D0416A41F4802153E014F0406F01D1D6
:101F0000E5004BD5C4F30164022C03D9416A41F4C6
:101F1000000146E00125A5401D608D684FF4C073A7
:101F20009DB1CE6835434E6845EAC605066803EBA9
:101F30000417F5514FF4C275076805EB04150E69D7
:101F40007E51097D012905D009E00E88CD6845EA5A
:101F50004655EBE701684E5946F480764E511179AB
:101F6000D2F805504FF4C67641EA0525016806EB24
:101F700004168D511178D2F801204FF4C47541EA4E
:101F80000221026805EB04155151006803EB0411AE
:101F9000425842F0010242500020F0BD416A41F433
:101FA000001141620120F0BD10B590F82020012AF7
:101FB00007D0022A05D0416A41F480214162012004
:101FC00010BD3B48D0F8002242F00102C0F80022C8
:101FD000D0F8002222F47C52C0F80022D0F800226F
:101FE0004B6A42EA0322C0F800220A7D02F01F0376
:101FF00001229A40D0F81C329343C0F81C32CB69BE
:10200000B3B9D0F80C329343C0F80C328C894B68CA
:1020100064F31F434C6900EBC404C4F840320C89DC
:102020000B6864F31F434C6900EBC404C4F84432EA
:10203000CB69012B16D1D0F80C321343C0F80C3207
:102040000C884B6864F31F434C6900EBC404C4F86C
:1020500040320C89CB6864F31F434C6900EBC40425
:10206000C4F844328B69002BD0F804320ED01343ED
:10207000C0F804320B69002BD0F8143208D0134397
:10208000C0F81432096A012904D008E09343EFE74D
:102090009343F5E7D0F81C121143C0F81C12D0F896
:1020A000001221F00101C0F80012002010BD000054
:1020B00000640040704730B590F82040012C05D0F6
:1020C000022C03D0416A41F480215DE004680029BC
:1020D00055D02469A40754D04FF4D874056804EB94
:1020E00001142D5915F00405956005682D594ED041
:1020F000ED08556005682C5904F00204D4604FF4D3
:10210000DA74056804EB01142D5905F00F0515610B
:1021100005682D59C5F30725956105682C59240CD0
:1021200054614FF4DC72046802EB0112A4581C7075
:102130000468A458240A5C700468A458240C9C7099
:102140000468A258120EDA704FF4DE72046802EBD3
:102150000112A4581C710468A458240A5C71046814
:10216000A458240C9C710468A258120EDA710068FD
:1021700081B1016941F020010161002030BDE468B6
:10218000A8E7416A41F400114162012030BD6D0DA4
:102190001560AFE7C16841F02001C160EDE72DE9AE
:1021A000F05F0546006800244669D0F8049087680F
:1021B000D0F80CB0D0F810A0D0F81880F10748D0B3
:1021C000F90714D001218160B80703D5284600F033
:1021D000A0FA0CE0780702D54FF4006407E0380756
:1021E00002D54FF4805402E0284600F091FAF80539
:1021F00016D529684FF480708860B80503D5284645
:1022000000F089FA0CE0780502D544F4005407E0A8
:10221000380502D544F4804402E0284600F07AFAFA
:10222000F80316D529684FF480308860B80303D5C9
:10223000284600F072FA0CE0780302D544F400441A
:1022400007E0380302D544F4803402E0284600F069
:1022500063FA300707D55FEACB6004D52968102000
:1022600044F40074C86070074FF0080707D55FEAB0
:102270000B7004D52868C760284600F0A9F9B0079C
:1022800006D52868C068800702D0284600F0A2F969
:10229000700607D55FEACA6004D52968102044F4A7
:1022A00080640861B00607D55FEA0A7004D5286823
:1022B0000761284600F0FCF9F00606D52868006999
:1022C000800702D0284600F0F4F9B00308D55FEA91
:1022D000C96005D5296810204860284600F0EAF951
:1022E000F00307D55FEA097004D5286847602846DF
:1022F00000F014FA300446D55FEA497040D5F00585
:1023000004D55FEAC87001D044F00104B00504D5DB
:102310005FEA887001D544F00204700504D55FEAD5
:10232000487001D544F00404300529D518F0700F29
:1023300026D008F07000402815D006DC102809D0FF
:1023400020280AD0302816D10AE050280ED0602864
:1023500011D10EE044F008040DE044F010040AE04E
:1023600044F0200407E044F0400404E044F080041A
:1023700001E044F480742868816921F07001816172
:10238000296804204860002C05D0686A20436862F0
:102390002846FFF78FFEBDE8F09F70B5040003D01C
:1023A00094F8200010B104E0012070BD204600F038
:1023B00081F82068016821F00201016000F0B6FC9C
:1023C0000546052604E000F0B1FC401B0A2811D8A0
:1023D000206840688007F6D42068016841F0010158
:1023E000016000F0A3FC05460BE000F09FFC401BE1
:1023F0000A2806D9606A40F40030606284F82060E0
:10240000D2E720684068C007EFD0207E012820680E
:1024100001683DD021F080010160607E01282068C4
:10242000016838D021F040010160A07E01282068B9
:10243000016833D021F020010160E07E012820688E
:1024400001682ED041F010010160207F0128206832
:10245000016829D021F008010160607F012820680F
:10246000016824D021F004010160D4E9020108438D
:10247000D4E90412114308436168491E08432168E6
:10248000C86100206062012084F82000002070BD37
:1024900041F08001C0E741F04001C5E741F0200173
:1024A000CAE721F01001CFE741F00801D4E741F07D
:1024B0000401D9E7F0B587B0044614216846FEF759
:1024C0003CF83E4B3E48DFF8F0E01968D4F800C015
:1024D0003B4A03250226092710300024491CF445F5
:1024E0002AD11960012907D1016841F0007101600A
:1024F000006800F000700590106840F0080010605F
:102500001068CDE9005600F00800CDE90470694676
:102510002C48CDE9024500F0DFFA00220221132009
:1025200000F072FC132000F061FC00220121142055
:1025300000F06AFC14203BE0DFF88CE0F44539D170
:10254000D0F800C04CF0806CC0F800C0D0F800C0DB
:1025500001290CF0806CCDF814C0196007D1016816
:1025600041F000710160006800F000700590106893
:1025700040F002001060106802AB00F0020005900D
:102580004FF44050CDE9000683E8B00069460F489B
:1025900000F0A2FA002203213F2000F035FC3F208A
:1025A00000F024FC00220121402000F02DFC4020FE
:1025B00000F01CFC07B0F0BD0064004008000020E3
:1025C00030380240000C0240006800400004024025
:1025D0007047000070B5054600F0A8FB2C4C216840
:1025E000401AB0F5967F05D9472003F0ABF800F00C
:1025F0009DFB206027492868274C884224D1244B22
:1026000022461B1D00212846FFF755FD08B1FFF7A4
:1026100053FC20680146A0F20120082837D2DFE8E9
:1026200000F00404040409090909C0B2C0EB401019
:102630001A4904E0491FC8B21949C0EB401001EB28
:10264000C0001349091D18E0164988421FD1104BDC
:10265000114A1B1D00212846FFF72DFD08B1FFF789
:102660002BFC2068A0F5007101390AD0012908D09F
:1026700002290CD106490C48091DBDE8704002F042
:10268000B9BF401EC0B2C0EB40100849D7E770BDCB
:102690002C0000200064004058100020B0050020ED
:1026A0009009002000680040600F0020700D00209D
:1026B000704770477047000070B5044690F82000DE
:1026C000012804D0606A40F40020606218E0022013
:1026D00084F820002068016821F00101016000F009
:1026E00025FB05460EE000BF00F020FB401B0A283A
:1026F00008D9606A40F400306062052084F8200048
:10270000012070BD20684068C007EDD1606270BDD7
:1027100070477047704770477047704770472DE9A2
:10272000F0410446876D00F001FB064694F8350041
:102730000025022806D08020606584F834500120EE
:10274000BDE8F0812068016821F016010160206871
:10275000416921F080014161206C08B9A06C20B171
:102760002068016821F0080101602068016821F0FB
:10277000010101600BE000F0D9FA801B052806D9A1
:102780002020606504F8345F03206070D8E720687B
:102790000068C007EFD194F85C103F208840B86013
:1027A00004F8345F012060700020C9E790F835100C
:1027B000022903D08021416501207047052180F85E
:1027C00035100068016821F00101016000207047A8
:1027D0002DE9F84304464FF00009CDF80090634816
:1027E0004FF41651A56D0068B0FBF1F72E6894F810
:1027F0005C10082000FA01F131420FD021680A680C
:1028000052070BD50A6822F004020A6094F85C10A3
:102810008840A860606D40F00100606594F85C102D
:102820004FF0010808FA01F0304208D021684969E8
:10283000090604D5A860606D40F00200606594F858
:102840005C1004208840304208D02168096889075C
:1028500004D5A860606D40F00400606594F85C10D9
:1028600010208840304218D021680968090714D523
:10287000A86020680168490304D50068000308D5F2
:10288000A16C07E00168C90503D4016821F00801C3
:102890000160216C09B12046884794F85C10202023
:1028A0008840304231D021680968C9062DD5A8601A
:1028B00094F8350005282068016806D0490347D5FB
:1028C000006800031DD4616C1CE021F0160101605A
:1028D0002068416921F080014161206C08B9A06C39
:1028E00020B12068016821F00801016094F85C10B3
:1028F0003F208840A86084F8349084F83580216DAA
:102900001FE0E16B09B120468847606D00282BD09D
:10291000606DC00714D0052084F835002068016878
:1029200021F0010101600098401C0090B84203D8DA
:1029300020680068C007F6D184F8349084F83580A8
:10294000E16C002910D001B02046BDE8F0430847F3
:102950000168C905D5D4016821F01001016084F82F
:10296000349084F83580CCE7BDE8F8831800002067
:102970002DE9F041044600F0D9F906465CB1002586
:1029800084F83450022084F835002068016821F072
:10299000010101600DE00120BDE8F08100F0C6F901
:1029A000801B052805D920206065032084F83500A8
:1029B000F2E720680068C007F0D12268116820485B
:1029C0000140D4E901031843D4E9033633431843E3
:1029D00063691843A3691843E3691843236A1843DA
:1029E0000843616A042903D1D4E90B13194308434E
:1029F000106020684069666A20F0070130460E4387
:102A0000012704280CD1A06A0643E06A40B12046A1
:102A1000FFF710F820B14020606584F83570BAE700
:102A2000206846612046FEF7F1FF94F85C203F21C4
:102A300091408160656584F835700020ACE7000046
:102A40003F8010F02DE9F0410446866D90F8340087
:102A5000002501280DD0012084F8340094F8357049
:102A60000020012F07D084F8340002252846BDE855
:102A7000F0810220FBE7022784F83570606520466C
:102A8000FFF702F894F85C103F208840B06020689F
:102A9000016841F016010160206C20B120680168D6
:102AA00041F0080101602068016841F00101016006
:102AB000DCE7000070B5044600F038F90546601CFC
:102AC00002D004480078044400F030F9401BA042D2
:102AD000FAD370BD0C0000202DE9F84FDFF8F4A107
:102AE000002201240AF1040B03254FF00F090BF11A
:102AF000040E00BF0B6804FA02F63340B3426FD1F4
:102B00000F7907F00307012F01D0022F16D1876834
:102B10004FEA420805FA08FC27EA0C07D1F80CC076
:102B20000CFA08FC4CEA070CC0F808C04768B74329
:102B30000E79C6F3001696403E4346600E79F64382
:102B4000B6070AD0C7684FEA420C05FA0CF6B7433D
:102B50008E6806FA0CF63E43C6600E7906F0030650
:102B6000022E10D1D60800EB8608D8F8206057074F
:102B70004FEAD76C09FA0CF7BE430F6907FA0CF756
:102B80003743C8F8207006684FEA420C05FA0CF784
:102B9000BE430F7907F0030707FA0CF737430760C6
:102BA0004E68F6001CD54C4E376847F480473760B6
:102BB000366822F0030706F480460096474E07EB7E
:102BC000060CDCF8086897073F0F09FA07F826EAB1
:102BD0000806DFF80C81404503D14FF0000841E0C2
:102BE00072E0DFF80081404502D14FF0010839E082
:102BF000DFF8F480404502D14FF0020832E0DFF800
:102C0000EC80404502D14FF003082BE0DFF8E08074
:102C1000404502D14FF0040824E0DFF8D880404559
:102C200002D14FF005081DE0DFF8CC80404502D10D
:102C30004FF0060816E0DFF8C480404502D14FF09F
:102C400007080FE0DFF8B880404502D14FF00808D0
:102C500008E0DFF8B080404502D14FF0090801E0FC
:102C60004FF00A0808FA07F848EA0608CCF808887E
:102C7000DAF800605746D1F804C09E435FEACC3CC6
:102C800000D51E433E60DBF800605F46D1F804C00B
:102C90009E435FEA8C3C00D51E433E60DEF8006038
:102CA0007746D1F804C09E435FEACC2C00D51E4382
:102CB0003E60084F0C373E68D1F804C09E435FEA7F
:102CC0008C2C00D51E433E60521C102AFFF412AF1C
:102CD000BDE8F88F003C014044380240003001401C
:102CE000000002400004024000080240000C0240C4
:102CF000001002400014024000180240001C024074
:102D000000200240002402400069084000D0012059
:102D10007047426921EA02030A4043EA02418161A5
:102D200070470AB1816170470904FBE70148806878
:102D3000704700000C0000200248816802781144AE
:102D4000816070470C0000200B4810B5016841F409
:102D500000710160016841F480610160016841F423
:102D600080710160032000F06FF80F2000F006F87A
:102D700000F024F8002010BD003C024070B50D4D5D
:102D800004464FF47A712878B1FBF0F00A490968DB
:102D9000B1FBF0F000F0A8FB48B9102C07D20022DC
:102DA0002146501E00F030F800206C6070BD0120FC
:102DB00070BD00000C000020180000200A4808B573
:102DC000016841F480410160006800F48040009097
:102DD0000548001F016841F080510160006800F063
:102DE0008050009008BD000044380240002809DBF4
:102DF00000F01F02012191404009800000F1E02015
:102E0000C0F8001170470000F0B40E4B1B680C4670
:102E1000C3F30223C3F10705042D00D90425191DAE
:102E2000072901D2002300E0DB1E012606FA05F186
:102E3000491E214099409E40761E16403143F0BC09
:102E400002F0A2BB0CED00E0064900F007020868A2
:102E50004FF6FF03184040EA0220034A104308607F
:102E6000704700000CED00E00000FA052DE9F04786
:102E70000E46050065D0DFF81481D8F80000F7B2DF
:102E800000F00F00B04207D288F80070D8F80000B8
:102E900000F00F00B04254D128683D4C810712D594
:102EA000400703D5206840F4E050206028780007F0
:102EB00003D5206840F4604020602068A96820F0B5
:102EC000F000084320602878C0072DD0304968689A
:102ED0000839012812D0022813D0032811D009681C
:102EE000890700292DDA216821F0030101432160BF
:102EF000FFF71CFF814641F2883A0EE0096889031A
:102F0000EFE709688901ECE7FFF710FFA0EB090183
:102F1000514502D90320BDE8F0872068696800F0B8
:102F20000C00B0EB810FEFD1D8F80010404601F053
:102F30000F01B14207D90770006800F00F00B042DE
:102F400001D00120E7E72878400705D52068E96827
:102F500020F4E050084320602878000706D5206858
:102F6000296920F4604040EAC100206000F038F890
:102F70002168084AC1F30311515CC8400649086042
:102F800006480068FFF7FAFE0020C4E7003C024054
:102F90000838024052660008180000201000002087
:102FA0000448054900680968044AC1F38221515C5C
:102FB000C8407047180000200838024062660008C8
:102FC0000448054900680968044AC1F34231515C6C
:102FD000C8407047180000200838024062660008A8
:102FE000154810B5006810F00C02144813D01449AD
:102FF000042A0FD0082A0ED10F4C241F2268236800
:1030000002F03F025B0207D52068C0F38810A0FBE6
:10301000010106E0084610BD2168C1F38811A1FB3B
:1030200000010023FDF743F92168C1F30141491C68
:103030004900B0FBF1F010BD083802400024F40054
:10304000001BB7002DE9F84F04006ED02078DFF8A0
:103050004C93C007A9F104054AD009F104000168A6
:10306000C1F38101012908D00068C0F38100022862
:103070000AD1D9F80000400206D52868800337D568
:1030800060680028E1D033E06068B0F5803F10D080
:10309000B0F5A02F286810D020F480302860286870
:1030A00020F4802028606068A8B1FFF73FFE064644
:1030B0000DE0286840F48030F4E740F48020286078
:1030C000F7E700BFFFF732FE801B642873D828683B
:1030D0008003F7D50CE0FFF729FE064605E000BFA8
:1030E000FFF724FE801B6428F0D828688003F7D4FB
:1030F0002078DFF8AC8280074FF0000A3ED5A74861
:10310000001D016811F00C0F08D00068C0F38100A9
:1031100002280BD1D9F80000400207D428688007A4
:1031200016D5E068012800D112E033E1E068B8B1BB
:103130000120C8F80000FFF7F9FD064605E000BFD2
:10314000FFF7F4FD801B0228C0D828688007F7D558
:103150002868216920F0F80040EAC10028600DE0ED
:10316000C8F800A0FFF7E2FD064604E0FFF7DEFD29
:10317000801B02281FD828688007F7D42078000712
:1031800022D5864F87486169703771B1012101608E
:10319000FFF7CCFD064604E0FFF7C8FD801B0228C0
:1031A00009D838688007F7D50EE0C0F800A0FFF70F
:1031B000BDFD064605E082E0FFF7B8FD801B022852
:1031C0007DD838688007F7D42078400768D5DFF8C5
:1031D000CCB100270BF13C0BDBF80000C0000BD496
:1031E000DBF8001041F08051CBF80010DBF8000054
:1031F000012700F0805000906B4E3068C00510D45D
:10320000306840F480703060FFF790FD009005E07A
:10321000FFF78CFD0099401A022850D83068C0058D
:10322000F6D55E4EA0686C3601280FD005283068B0
:1032300010D020F001003060306820F004003060D1
:10324000A068B8B1FFF772FD00900FE0306840F061
:103250000100F4E740F004003060F7E7FFF766FD97
:103260000099411A41F28830814266D8306880075F
:10327000F4D50EE0FFF75AFD009007E0FFF756FD8A
:103280000099411A41F28830814256D8306880074F
:10329000F4D42FB1DBF8001021F08051CBF80010EE
:1032A000A069C8B33D49091D0968C1F3810102291C
:1032B0004AD00228504607D0C8F8600000E03CE041
:1032C000FFF734FD04463BE04746C8F86000FFF7CF
:1032D0002DFD064605E000BFFFF728FD801B0228F4
:1032E0002BD828688001F7D4D4E907010843A16AE4
:1032F0002E4A490802EB0141626A41EA8211084301
:1033000094F82C1040EA0161C9F8001001203866D9
:10331000FFF70CFD044606E03EE000BFFFF706FDA8
:10332000001B022809D828688001F7D534E000BFC7
:10333000FFF7FCFC001B022802D90320BDE8F88F30
:1033400028688001F4D427E00128F7D0D9F80000DC
:10335000E26900F4800191421CD1226A00F03F0131
:10336000914217D147F6C071626A0140B1EB821FEA
:1033700010D1A26A4FF0FF3300F4403103EB520248
:10338000B1EB024F06D194F82C1000F07060B0EB56
:10339000016F01D00120D1E70020CFE704380240BF
:1033A00000004742800E4742007000400000FFFFCF
:1033B00070B5040008D0606A002538B125616561E8
:1033C00094F8510040B10CE0012070BD6068B0F588
:1033D000827FF5D0E561F3E784F85050204600F095
:1033E0004DF8022084F851002068016821F0400166
:1033F0000160A088218900F4827001F4044108432F
:10340000A18901F400610843217C01F00201084315
:10341000217D01F001010843218B01F40071084373
:10342000217F01F03801084394F8201001F0800159
:103430000843218D01F40051084321680860A06908
:10344000042101EA104094F8241001F0100108430F
:1034500021684860A06AB0F5005F03D1A08D2168A3
:1034600080B208612068C16921F40061C1616565AD
:10347000012084F85100002070BD000010B586B016
:10348000044614216846FDF758F81449206888421C
:1034900021D113480021026842F4801202600068C2
:1034A00000F4801005900E481438026842F02002A3
:1034B0000260006800F0200005904FF460700090FA
:1034C0000220CDE901010320039005200490694604
:1034D0000448FFF701FB06B010BD0000005001409A
:1034E000443802400014024010B5401EB0F1807F05
:1034F00001D3012010BD4FF0E02460610F2160175F
:1035000002F042F80020A06107202061002010BDD9
:1035100010B590F83C20012A22D0012280F83C20EE
:10352000CA688C6822F4407222434C6822F480629C
:1035300022430C6822F4006222430C6922F4805278
:1035400022434C6922F400522243C969002322F429
:1035500080420A4301684A6480F83C30002010BD74
:10356000022010BD70B590F83C20012A32D0012411
:1035700080F83C40022280F83D2003685A689D682C
:1035800022F070060A6832435A60134B02689A426E
:1035900014D0B2F1804F11D0104B9A420ED0104B84
:1035A0009A420BD00F4B9A4208D00F4B9A4205D04B
:1035B0000E4B9A4202D00E4B9A4204D1496825F034
:1035C00080031943916080F83D40002180F83C1051
:1035D000084670BD022070BD00000140000400409C
:1035E00000080040000C0040000401400040014081
:1035F0000018004010B5040003D094F83D0010B14D
:1036000007E0012010BD002084F83C00204600F0B7
:103610001FF8022084F83D00211D206801F07CFB8A
:10362000012084F8460084F83E0084F83F0084F8C6
:10363000400084F8410084F8420084F8430084F894
:10364000440084F8450084F83D00002010BD0000CF
:1036500008B501681448814201D1144810E01348AC
:10366000001FB1F1804F0BD0114A914210D1016877
:1036700041F008010160006800F00800009008BDFA
:10368000016841F001010160006800F00100F5E708
:10369000084A9142F3D1016841F04001016000689D
:1036A00000F04000EAE7000000000140443802401A
:1036B000000C00400018004070B5044690F83C0033
:1036C000012817D0012584F83C50022084F83D00E1
:1036D0002068826822F0770222F47F4282600868C4
:1036E000502830D00DDC20284DD005DC98B31028B0
:1036F0003BD148E0022070BD302844D0402834D16E
:1037000039E0602828D0702806D0B0F5805F2CD032
:10371000B0F5005F29D10AE0CB68D1E9012120682A
:1037200001F06BFB2068816841F0770109E0CB680C
:10373000D1E90121206801F060FB2068816841F433
:103740008041816011E0CA684968206801F02AFC64
:103750005021206807E016E0CA684968206801F037
:1037600032FC6021206801F052FB84F83D500020BB
:1037700084F83C0070BDCA684968206801F012FCFA
:1037800040212068EFE7226801461046EBE7000081
:1037900070B586B0044614216846FCF7CEFE3E4B59
:1037A000226800243D49022501263D489A4221D144
:1037B0000A6842F001020A600A6802F001020592FA
:1037C0000A6842F010020A60096801F010010591D0
:1037D0004FF440710091CDE90154CDE903466946AB
:1037E000FFF77AF94FF4C0400090CDE901546946E3
:1037F0002C4821E0B2F1804F11D02B48824221D1D8
:10380000086840F0080008600868694600F0080091
:10381000059090140090CDE90154244824E00A68F2
:1038200042F001020A60096801F0010105910F21CF
:103830000091CDE901546946CDE90346FFF74CF903
:1038400006B070BD1A4B1B489A4210D10A6842F06C
:1038500080020A60096801F0800105914FF4C051AF
:103860000091CDE901546946CDE90345E6E7124BE5
:103870009A42E5D10A6842F080020A60096801F0C4
:103880008001059140210091CDE901540921CDE944
:1038900003416946D2E70000000001403038024091
:1038A000000002400010024000080040000C0240EE
:1038B000000C0040001C02400018004070B5044697
:1038C00090F83C000D4601280AD0012084F83C0005
:1038D00042B1042A18D0082A2AD00C2A4DD139E046
:1038E000022070BD206801F09BFA2068816941F0D8
:1038F000080181612068816921F0040181612068EB
:1039000081692A69114311E0206801F0B9FA206841
:10391000816941F4006181612068816921F48061DD
:103920008161206881692A6941EA0221816124E07C
:10393000206801F0DBFA2068C16941F00801C1612B
:103940002068C16921F00401C1612068C1692A6948
:10395000114311E0206801F0FDFA2068C16941F4CB
:103960000061C1612068C16921F48061C161206882
:10397000C1692A6941EA0221C161002084F83C0042
:1039800070BD10B5040003D094F83D0010B107E0FD
:10399000012010BD002084F83C00204600F01EF8F5
:1039A000022084F83D00211D206801F0B5F90120B6
:1039B00084F8460084F83E0084F83F0084F8400014
:1039C00084F8410084F8420084F8430084F84400FD
:1039D00084F8450084F83D00002010BD08B500685B
:1039E0000649884208D10648016841F00401016097
:1039F000006800F00400009008BD000000080040CE
:103A00004038024010B50446022249B104290ED0C4
:103A1000082913D094F84100012816D0012010BDC8
:103A200094F83E000128F9D184F83E200FE094F884
:103A30003F000128F2D184F83F2008E094F84000CC
:103A40000128EBD184F8402001E084F841200122D4
:103A5000206801F0C5F916492068164A884201D04D
:103A6000904203D1436C43F400434364206888428E
:103A700013D0B0F1804F10D00F4988420DD00F49BC
:103A800088420AD00E49884207D0904205D00D499D
:103A9000884202D00C49884204D1816801F00701B4
:103AA000062903D0016841F001010160002010BD2A
:103AB00000000140000401400004004000080040F4
:103AC000000C004000400140001800407047704763
:103AD000F8B5026804461068D168536910F00F0FFA
:103AE0004FF0000553D003F0010601F490773743FF
:103AF0005FD0C20705D0CA0503D5226C42F001028F
:103B00002264420705D5DA0703D0226C42F0020294
:103B10002264820705D5DA0703D0226C42F0040242
:103B20002264020707D501F02002324303D0226C41
:103B300042F008022264226C002A34D0800604D5A8
:103B4000880602D5204601F0E5FA20684069216C1C
:103B5000C0F38010090700D430B3204601F0B9FA51
:103B60002068416949061BD5416921F04001416146
:103B7000A06BA8B159490165A06BFEF717FE00289C
:103B800011D0A06B016D01B0BDE8F040084783067D
:103B90000FD58B060DD52046BDE8F84001F0BABA26
:103BA0002046FFF794FFF8BD2046FFF790FF2564FD
:103BB000F8BD266B2023012E53D1C60651D5CE0663
:103BC0004FD5106850680090506940062BD5A16B06
:103BD000086840680004000CEAD0A68D8642E7D948
:103BE000E085C869B0F5807F18D0D06820F4807077
:103BF000D0602068416921F001014161206841697C
:103C000021F04001416184F83E3025632068C1689D
:103C100021F01001C160A06BFEF781FDA08DE18D48
:103C2000401A81B219E0A08DE18D401A81B2E08D79
:103C30000028BDD00029BBD0D06820F49070D0609F
:103C40002068426922F00102426184F83E30256317
:103C50002068C26822F01002C2602046FFF736FFDB
:103C6000F8BD05062BD50D0629D594F83D00212871
:103C7000F6D1A068B0F5805F01D12069B0B1206AAB
:103C8000411C2162216800784860E08C401E0004DD
:103C9000000CE084E4D12068C16821F08001C1609B
:103CA0002068C16841F04001C160F8BD206A008809
:103CB000C0F308005060206A801C2062E5E74006DF
:103CC000F3D54806F1D5D168204621F04001D160F6
:103CD00084F83D3000F0E9F9F8BD00000550000817
:103CE00070B5040004D094F83D00002510B106E042
:103CF000012070BD84F83C50204600F023F82420B9
:103D000084F83D002068C16821F40051C16020465C
:103D100001F058FA2068016921F49041016120689E
:103D2000416921F02A0141612068C16841F40051D4
:103D3000C1602564202084F83D0084F83E00002006
:103D400070BD00002DE9F04F87B00546142168468C
:103D5000FCF7F3FBA0489F4E2B68DFF87C921038ED
:103D600002220321DFF874E200244FF0080CB34272
:103D700024D1D9F8005045F08045C9F80050D9F851
:103D8000003003F080430593036843F010030360A1
:103D90000068CDE9024100F010000590C801CDE9AE
:103DA0000002CDF810C069467046FEF795FE00226D
:103DB00007215220FFF728F852205DE0DFF820822B
:103DC0004FF48077BE004FF0400B4FF0206A434520
:103DD00057D1D9F8008048F00048C9F80080D9F8D8
:103DE000003003F000430593036843F010030360C1
:103DF000006800F0100005908DE81600CDE9031C66
:103E000069467046FEF768FEDFF8DC81754940467A
:103E1000C8F80010C0E901A4C0E90346C8F814407E
:103E2000B101C8F81840C8E90771D146C8F8244064
:103E3000FEF79EFD08B1FEF73FF86B4FC5F83880DE
:103E40006037C8F83850C7E903467C61BC616548F3
:103E5000FC613C6290387C6287E8010A3846FEF7D4
:103E600087FD08B1FEF728F86F6300220321532075
:103E7000BD63FEF7C9FF5320FEF7B8FF07B0BDE8EA
:103E8000F08FDFF86881DFF85091434509F10409AC
:103E900044D1D9F800C04CF0100CC9F800C0D9F8D2
:103EA000003003F010030593036843F0020303603E
:103EB000006800F002000590C0208DE81500072082
:103EC000CDE9031069464A48FEF706FEDFF818817F
:103ED000484908F1C0084046C8F800104FF000619A
:103EE000C0E90114C0E90346C8F814404FF440315A
:103EF000C8F81840C8E90771C8F82440FEF738FD33
:103F000008B1FDF7D9FFC5F83880002211462520F9
:103F1000C8F83850FEF778FF2520ADE7DFF8D880E5
:103F20004345ABD1D9F8008048F02008C9F800809B
:103F3000D9F8003003F020030593036843F04003F1
:103F400003600068CDE9024100F0400005904FF4A5
:103F50008440CDE90002CDF810C069462748FEF73D
:103F6000BBFD2449DFF8989060394846C9F8001035
:103F7000C0E901A4C0E90346C9F81440C0E90647F6
:103F8000C9F82040D046C9F82440FEF7F1FC08B13A
:103F9000FDF792FF1A4FC5F838906037C9F83850CE
:103FA000C7E903467C61BC611248FC613C62183081
:103FB0007C6287E801093846FEF7DAFC08B1FDF7B4
:103FC0007BFF6F6300220C214720BD63FEF71CFFBF
:103FD000472051E70078004040380240001002407E
:103FE000007C0040A06002406003002000100140FF
:103FF000000402408864024000140140001802409E
:104000008004002090F83E30202B0ED159B152B1DF
:1040100090F83C30012B08D0012380F83C3000237D
:10402000036301F055B9012070470220704790F8F2
:104030003E30202B0ED159B152B190F83C30012BBB
:1040400008D0012380F83C300023036301F078B9E5
:10405000012070470220704710B500680C49884263
:1040600003D1BDE81040FDF72DBD0A4988420ED0AE
:10407000094988420BD109480178094800F042F803
:10408000BDE81040012205490648FFF7D0BF10BD2A
:104090000010014000140140007C00404005002059
:1040A000A81100209402002070477047F0B500244A
:1040B0002346254605E000BF00EB83065B1CDBB210
:1040C000F564B0F84260761C9E42F5D8002312E0F9
:1040D000CD5C2C2D0BD000EB8405EE6C06EB860638
:1040E0007600EE64CF5C3E44303EEE6401E0641C3A
:1040F000E4B25B1CDBB29342EAD320F8424F0121C9
:104100008171F0BD70B5044690F87400012200255D
:10411000702801D170290ED094F84600A0B1B4F8EF
:104120004400661C431CA4F84430815594F8740084
:104130000D2805D006E084F8462084F8745070BD40
:104140000A2912D084F8741094F84700A0B100BF77
:10415000B4F84400611C801E82B22046FFF7A6FF1F
:1041600084F84750A4F8445070BD84F8465084F851
:10417000472084F87450EBE784F8741070BD10B5D4
:1041800000231A46C4185B1C9BB26270402BF9D303
:1041900000F82A1B0283428302774277827780F8F5
:1041A0004A2010BDFEE70000104810B50E4901601E
:1041B0000321416000214FF400228160C0E9031215
:1041C0004FF4401242610176012242768176C17637
:1041D00001774177FEF7E1F8002803D0BDE81040F1
:1041E000FDF76ABE10BD00000064004040000020E2
:1041F000104810B50E4901600321416000214FF4C1
:1042000000228160C0E903124FF44012426101763E
:10421000012242768176C17601774177FEF7BDF8BB
:10422000002803D0BDE81040FDF746BE10BD0000D9
:1042300000680040680000201D4808B5016841F48E
:1042400080010160016801F480010091016841F47E
:10425000001101600068002200F400100090114677
:104260000B20FEF7D1FD0B20FEF7C0FD002211460A
:104270001120FEF7C9FD1120FEF7B8FD00221146FE
:104280003920FEF7C1FD3920FEF7B0FD00221146AE
:104290004420FEF7B9FD4420FEF7A8FD0022114698
:1042A0004520FEF7B1FDBDE808404520FEF79EBD64
:1042B000303802402DE9F04F87B014216846FCF7F2
:1042C0003CF95D480024016841F01001016001687B
:1042D00001F010010591016841F0400101600168A1
:1042E00001F040010591016841F0010101600168A0
:1042F00001F001010591016841F0020101600168CE
:1043000001F002010591016841F0080101600168B6
:1043100001F008010591016841F4807101600168B4
:1043200001F480710591016841F08001016001682C
:1043300001F080010591016841F0200101600068F1
:10434000DFF8F89000F020004FF4005605900022AE
:1043500031464846FEF7E5FCDFF8E4A000223C21A8
:104360005046FEF7DEFC01224FF4FF714846FEF78F
:10437000D8FC002240213348FEF7D3FCDFF8C8B058
:10438000002231465846FEF7CCFC0122D7023946BE
:104390002E48FEF7C6FC4FF48048012241462948CA
:1043A000FEF7BFFC42F2FE1000900125CDE901545A
:1043B000694648460394FEF78FFBE4208DE8310000
:1043C00069462348FEF788FB3C200090CDE9015464
:1043D000694650460394FEF77FFB4020CDE9000577
:1043E0000320CDE9024069461648FEF775FB04201C
:1043F000CDE900040220029069461648FEF76CFBE6
:104400000096CDE90154694658460394FEF764FBD3
:104410000097CDE9015469460C480394FEF75CFB14
:10442000CDF80080CDE90154694606480394FEF7B3
:1044300053FB07B0BDE8F08F30380240001802404F
:10444000001C024000140240000C02400010024018
:104450000020024000040240114810B50F490160DD
:104460004FF48271416000218160C1604FF400729D
:104470000161C0E905123022C0E9072141624FF411
:10448000005181620A21C162FEF792FF002803D029
:10449000BDE81040FDF710BD10BD00000050014008
:1044A0009000002010B58CB0002407940894099463
:1044B0001C2168460A94FCF740F81B481949016022
:1044C000A721C0E9011440F27111C0E90314802151
:1044D0008161FFF78FF808B1FDF7EEFC4FF48050D3
:1044E000079007A91048FFF7E7F808B1FDF7E4FCCB
:1044F0000D48FFF746FA08B1FDF7DEFC6020CDE974
:104500000004022002900022694604940648FFF746
:10451000D5F908B1FDF7D0FC0348FFF739F90CB025
:1045200010BD0000001800400802002010B596B031
:1045300000240F9410941194129413941C21684633
:104540001494FBF7FAFF202107A8FBF7F6FF354884
:1045500033490160A721C0E9011440F2E731C0E905
:1045600003148021C0E90541FFF744F808B1FDF7C5
:10457000A3FC4FF480500F900FA92A48FFF79CF836
:1045800008B1FDF799FC2748FFF7FBF908B1FDF7E3
:1045900093FC139413A923481494FEF7E3FF08B186
:1045A000FDF78AFC6020CDE9000402940394049492
:1045B0000594002269461B480694FFF77FF908B16D
:1045C000FDF77AFC042269461648FFF777F908B12F
:1045D000FDF772FC082269461248FFF76FF908B12F
:1045E000FDF76AFC0C2269460E48FFF767F908B12F
:1045F000FDF762FC0794089409944FF400500A9464
:10460000CDE90B4007A907480E94FEF781FF08B1DA
:10461000FDF752FC0348FFF7BBF816B010BD0000D1
:1046200000000140E800002010B58EB0002407947F
:10463000089409940A940B941C2168460C94FBF787
:104640007CFF2A484FF0804101605321C0E90114EA
:1046500044F61F61C0E9031480218161FEF7CAFF9F
:1046600008B1FDF729FC4FF48050079007A91F48B7
:10467000FFF722F808B1FDF71FFC1C48FFF781F98E
:1046800008B1FDF719FC0B940BA918480C94FEF720
:1046900069FF08B1FDF710FC6020CDE90004029429
:1046A0000022694611480494FFF708F908B1FDF7A4
:1046B00003FC042269460D48FFF700F908B1FDF735
:1046C000FBFB082269460948FFF7F8F808B1FDF737
:1046D000F3FB0C2269460548FFF7F0F808B1FDF737
:1046E000EBFB0248FFF754F80EB010BD300100207C
:1046F00010B58AB0002407941C2168460894FBF783
:104700001CFF1748154901605321C0E9011440F20C
:10471000E731C0E9031480218161FFF732F908B164
:10472000FDF7CAFB079407A90D480894FEF71AFF86
:1047300008B1FDF7C1FB602000906420CDE90104C1
:104740000022694606480494FFF7B8F808B1FDF75F
:10475000B3FB0348FFF71CF80AB010BD0008004087
:104760007801002010B58EB00024079408940994B5
:104770000A940B941C2168460C94FBF7DEFE234838
:104780002149016040F28F61C0E9011440F2E73134
:10479000C0E9031480218161FEF72CFF08B1FDF709
:1047A0008BFB4FF48050079007A91848FEF784FF51
:1047B00008B1FDF781FB1548FFF7E3F808B1FDF7F5
:1047C0007BFB0B940BA911480C94FEF7CBFE08B1B0
:1047D000FDF772FB6020CDE90004029404226946D3
:1047E0000A480494FFF76AF808B1FDF765FB082250
:1047F00069460648FFF762F808B1FDF75DFB03481C
:10480000FEF7C6FF0EB010BD000C0040C001002036
:104810000C4810B50A4901604FF4E13141600021B4
:1048200081600C22C160C0E904128161C161FFF79F
:1048300057FA002803D0BDE81040FDF73DBB10BD7E
:1048400000780040500200200C4810B50A49016071
:104850004FF4E1314160002181600C22C160C0E968
:1048600004128161C161FFF73BFA002803D0BDE863
:104870001040FDF721BB10BD007C004094020020D9
:104880000E4810B50C4901600D4941604FF480514C
:10489000816000214FF48062C0E903120C22C0E95C
:1048A0000521C161FFF71CFA002803D0BDE81040C4
:1048B000FDF702BB10BD000000100140D80200202F
:1048C000A08601000C4810B50A4901604FF4E1319F
:1048D0004160002181600C22C160C0E90412816145
:1048E000C161FFF7FDF9002803D0BDE81040FDF7D6
:1048F000E3BA10BD001401401C030020FEE70000D5
:1049000010B500210E48FFF77DF804210C48FFF791
:1049100079F808210A48FFF775F80C210848FFF7D5
:1049200071F800210748FFF76DF84FF08040002133
:1049300041638163C16301640349C820086010BDFD
:1049400030010020780100203408004010B5012219
:1049500004490548FFF76BFBBDE810400021034800
:10496000FFF70DBC4005002094020020A811002094
:10497000FEE7000070B5174C9FED140B002584ED89
:10498000000B84ED020BA564A561E56184ED040BC9
:10499000256265622564E563A563FF20656384F88D
:1049A0004400FEF7C3F9E0640121372000F054FE13
:1049B0000121382000F050FE9FED070A84ED0A0A1D
:1049C000A585B2EE040A84ED0C0A70BD000000005B
:1049D0000000000078100020000000007047002355
:1049E0001A461946184600F0ABB870472DE9F04753
:1049F000002535A0FBF7D2FC37A0FBF7CFFC4FF426
:104A000016774FF00A08DFF8DC90374C7E421EE044
:104A10006D1CADB24046B5FBF0F108FB115131B948
:104A2000B5FBF8F0C0F1060130A0FBF7B7FC04219C
:104A30004846FEF769F9012815D06420FEF73AF8D8
:104A4000312000F07FFE322D01D900F051F9B4F988
:104A50000200B042DCDCB4F90400B842D8DBB4F99F
:104A60000600B042D4DC322000F0A6FD26A0FBF701
:104A700095FC4D4608E004212846FEF745F901283B
:104A80001ED06420FEF716F8B4F90200B042F2DB43
:104A9000B4F90400B842EEDCB4F90600B042EADB37
:104AA0006421382000F0C2FFC820FEF703F8C821B7
:104AB000382000F0BBFFBDE8F04717A0FBF76EBC45
:104AC00002202072ECE7000053616665204D6F64A0
:104AD00065204C6F636B0A00C4DAB0CBBDE2CBF843
:104AE0000A000000000402409C05002052656D6130
:104AF000696E696E6720726573746172742074697F
:104B00006D652025640A0000556E4C6F636B5F482D
:104B1000616C660A00000000556E4C6F636B5F4667
:104B2000756C6C0A0000000010B50A2000F0E6FF6A
:104B3000C820FDF7BFFFBDE81040002000F0DEBF39
:104B400030B589B00024009401940894049405942D
:104B500008240694040A8DF800408DF80100080A24
:104B60008DF80200100A8DF804008DF80520180A4F
:104B700040F2FF158DF8060002958DF803108DF8B0
:104B8000073008AB6A4602A90348FDF7A9F90028D7
:104B9000F7D109B030BD0000400000202DE9F04100
:104BA0000E46154600211A4C1F460122C1EB411347
:104BB000491CC9B204F833200429F7D300EE100AC7
:104BC000B8EEC00A10EE100A01F0C2FC00EE106A46
:104BD000E4E92601B8EEC00A10EE100A01F0B8FCB4
:104BE00000EE105AC4E93E01B8EEC00A10EE100AF9
:104BF00001F0AEFC00EE107AC4E97C01B8EEC00A08
:104C000010EE100A01F0A4FCC4E9BA01BDE8F0817D
:104C10009009002070B50D4600220A4C012100BF0A
:104C2000C2EB4213521CD2B204F83310022AF7D35B
:104C300001F01DFAE4E92601284601F018FAC4E95A
:104C40003E0170BD90090020FEF776B830B593B0F4
:104C500030216846FBF771FC14210CA8FBF76DFCB2
:104C60001D480025016841F080510160006800F096
:104C7000805011901948016841F44041016000687A
:104C8000022400F4404011900120009000040190A3
:104C90008001CDE9064006200890A820CDE909044E
:104CA00004200B906846FEF7CDF908B172B6FEE716
:104CB0000CA90F2081E831004FF4A0500F904FF461
:104CC0008050109005210CA8FEF7D0F8002801D0E4
:104CD00072B6FEE713B030BD4038024000700040AD
:104CE0000248016841F470010160704788ED00E0FE
:104CF000012080F31388BFF34F8F05480168054AF0
:104D000001F4E06111430160BFF34F8F00BFFDE785
:104D10000CED00E00400FA05F0B50268254C264DC4
:104D2000264E274F274B4FF0804CA04209D06045BC
:104D300007D0A84205D0B04203D0B84201D0984273
:104D400004D122F0700E4A6842EA0E02A0421BD043
:104D5000604519D0A84217D0B04215D0B84213D040
:104D6000984211D0184DA8420ED0184DA8420BD031
:104D7000174DA84208D0174DA84205D0164DA8429D
:104D800002D0164DA84203D122F44075CA682A43C6
:104D90004D6922F080022A4302608A68C2620A6872
:104DA0008262A04201D0984201D1096901630121C8
:104DB0004161F0BD000001400004004000080040D7
:104DC000000C00400004014000400140004401404C
:104DD0000048014000180040001C00400020004036
:104DE00010B501F01F030121046A99408C4304624D
:104DF000016A9A401143016210BD10B5846842EA0D
:104E0000032224F47F440A432243826010BD826857
:104E100022F070020A4342F00701816070470000EF
:104E2000F0B5026A22F001020262036A42688469F4
:104E3000124E24F073050C682C4323F002058B6896
:104E40002B430D4DA84201D0B04205D123F00807F5
:104E5000CB683B4323F00403A84201D0B04205D104
:104E60004D6922F4407215438A692A434260846185
:104E7000496841630362F0BD000001400004014045
:104E8000F0B5026A22F010020262026A4368846985
:104E90000D6824F4E64444EA05248D6822F02002DB
:104EA00042EA05120F4D104EA84201D0B04206D181
:104EB000CF6822F0800242EA071222F04002A842A4
:104EC00001D0B04207D14D6923F4406343EA850322
:104ED0008D6943EA850343608461496881630262A6
:104EE000F0BD00000000014000040140F0B5026A7E
:104EF00022F480720262026A4368C46922F400727A
:104F000024F073050C68124E2C438D6842EA05228A
:104F10000E4DA84201D0B04206D1CF6822F4006203
:104F200042EA072222F48062A84201D0B04207D1AF
:104F30004D6923F4405343EA05138D6943EA051391
:104F40004360C4614968C1630262F0BD0000014072
:104F50000004014030B5026A22F480520262046A01
:104F60004268C3690D6823F4E64343EA05238D686C
:104F700024F4005444EA0534084DA84202D0084DF8
:104F8000A84204D14D6922F4804242EA851242606F
:104F9000C36149680164046230BD00000000014043
:104FA0000004014010B5036A046A24F0010404629D
:104FB000846924F0F00444EA021423F00A020A434C
:104FC0008461026210BD10B5036A23F0100303620E
:104FD0008369046A23F4704343EA023224F0A00395
:104FE00043EA01118261016210BD00000148FEF731
:104FF0006FBD0000500200200148FEF769BD0000AF
:105000009402002010B5806B0021C185C184FEF799
:105010005EFD10BD70B5846B2068406994F83D104A
:10502000C0F3C0100025212904D118B1E584204621
:1050300000F067F82068406994F83E10C0F38010D3
:10504000222904D118B1E585204600F042F8206CF1
:1050500040F0100020642046FEF739FD70BD10B509
:105060000146806B09680968C9051BD40021C18508
:105070000168CA6822F48072CA6001684A6922F035
:1050800001024A6101684A6922F040024A61202116
:1050900080F83E10016B012904D10168CA6822F032
:1050A0001002CA60016B012902D0FEF7D5FF10BDC6
:1050B000818DFEF70BFD10BD10B5806B016B0129D2
:1050C00002D0FEF7F1FF10BD818D4908FEF7FEFC0E
:1050D00010BD0168CA6822F49072CA6001684A690A
:1050E00022F001024A61016B012904D10168CA68FA
:1050F00022F01002CA60202180F83E1000210163D6
:1051000070470168CA6822F0C002CA60202180F896
:105110003D10704710B5044690F83E00222801D09B
:10512000022010BDA1684FF48052914201D1206944
:1051300020B1A06A91421BD049B10AE02168A06A5F
:105140004968C1F308010180A06A801C08E0216958
:1051500071B12168496801F07F010170A06A401CAB
:10516000A062E08D401E0004000CE08503D01CE02E
:1051700021684968F1E72068C16821F02001C16019
:105180002068C16821F48071C1602068416921F004
:1051900001014161202084F83E00206B012806D0E7
:1051A0002046FEF759FF00202063002010BD206834
:1051B000C16821F01001C160A18D2046FEF786FC78
:1051C000F1E7000070B5044600680169E26821F467
:1051D0004051114301612169A068E2690843616996
:1051E000114308432168CA6849F20C639A43024399
:1051F000CA6020684169A26921F44071114341618C
:1052000031492068884202D03049884202D1FDF7F6
:10521000D7FE01E0FDF7C4FEE269002319216425F1
:105220003226B2F5004F626828D0A0FB0101930F2F
:105230009200FBF73CF80146B0FBF5F06FF0180266
:10524000504301EB800006EB0010B0FBF5F000F0DE
:10525000F002B1FBF5F002EB0012B1FBF5F06FF0DC
:105260001803584301EB800006EB0010B0FBF5F08B
:1052700000F00F0021681044886070BDA0FB0101A0
:1052800092185B41FBF713F80146B0FBF5F0020101
:10529000B1FBF5F06FF01803584301EB800006EB0B
:1052A000C000B0FBF5F000F0F80002EB4002B1FBEB
:1052B000F5F0584301EB800006EBC000B0FBF5F0C1
:1052C00000F00700D6E70000001001400014014084
:1052D00038B5816282850025134604460564222084
:1052E00084F83E00A26B1348D063A26B124810648E
:1052F000A26B1248D064A06B0A4605652168A06BBA
:10530000091DFDF79FFB206801684168009184F842
:105310003C50C16841F48071C1602068416941F02E
:10532000010141612068416941F040014161002073
:1053300038BD00005F500008B95000081550000843
:1053400081628285C28500210164222280F83E208C
:1053500080F83C100168CA6842F48072CA60016833
:105360004A6942F001024A610068C16841F02001C7
:10537000C1600020704700000148FEF7A9BB000093
:10538000D80200200148FEF7A3BB00001C03002048
:10539000FEE7000070B5144C01252DED028BB0EE38
:1053A000408A84ED041AF0EE608A84F82C5094ED63
:1053B000000B51EC180B53EC102B00F01DFC9FED73
:1053C0000B0BC4E9080153EC102B51EC180B00F047
:1053D00065FE04D284F8D050BDEC028B70BD002075
:1053E00084F8D000F8E70000C8100020000000009A
:1053F0000000000010B50B4C94F82D0004EB0010D9
:1054000080ED0C0B11EE100A01F0A2F894F82D209B
:1054100004EB0212C2E90E0114F82D0F401C20709B
:1054200010BD0000C810002070B5164C002594F87F
:105430002C00002824D194F82D00002820D094EDD1
:105440000E0B51EC100B00F0A5FB01EE100A94EDD1
:105450000C0BFFF79FFF0BE004EB05106D1C90EDAC
:10546000100BEDB280ED0C0B90ED120B80ED0E0BDE
:1054700094F82D00A842EFD8C0B2401E84F82D0049
:1054800070BD0000C810002070B52DED048BFFF733
:10549000CBFF2D4C94F82C00002851D0FDF746FC92
:1054A000A16A401A0A284BD9FDF740FCA06294F883
:1054B000D00000269FED258B94ED000B012853ECC6
:1054C000182B51EC100B234D19D000F095FB41EC3B
:1054D000190B53EC182B84ED009B94ED020B51EC4F
:1054E000100B00F089FBC4E9020194ED080B51ECAC
:1054F000190B53EC102B00F00BFF21D818E000F033
:105500003DFF41EC190B53EC182B84ED009B94EDFF
:10551000020B51EC100B00F031FFC4E9020194EDD5
:10552000080B51EC190B53EC102B00F0B7FD07D80A
:1055300094F82D0010B92878401C287084F82C604D
:10554000BDEC048B70BD0000C810002000000000FE
:10555000000024403800002003B401984100009866
:1055600050EAC12018BF04204A0D18BF40F00100C6
:1055700040F2FF72B2EB515F08BF40F00200012819
:1055800008BF052002B070470907090E002804DB98
:1055900000F1E02080F80014704700F00F0000F1E7
:1055A000E02080F8141D704730380A2801D201200D
:1055B00070470020704770470146382000F036BA27
:1055C00010B500210348FEF71DFA034900200860CA
:1055D00010BD0000080200203418004004490A6889
:1055E0005206FCD5024AC1B2121D1160704700007C
:1055F0000078004010B5428A044682820888F1EEA5
:10560000040A40BA60824B88821A5BBA2381898877
:10561000B2F5805F49BA00EE101AB8EE400A20EEEB
:10562000200ADFED0C0A20EE200A84ED030AA169AE
:1056300001DD491E03E012F5805F01DA491CA1611A
:1056400000EB4130E18A401A00F011FDC4E9080185
:1056500010BD000000008038F0B4374B374C9D156A
:10566000DE14A0F131026F0179B3362822D006DCB6
:10567000052A5ED2DFE802F01214181A1C0047282F
:105680001CD005DC372817D0382852D100224BE037
:105690004C2818D052284CD100222AE000222EE0BB
:1056A00000222FE0184626E000222EE000222FE004
:1056B000002230E0002231E0002232E000224FF4EC
:1056C00080411F4817E0012231E0FFE7362824D04F
:1056D00006DC052A2DD2DFE802F01114171A1D008E
:1056E00037281DD038281ED04C281FD0522820D152
:1056F000012231462046F0BCFDF713BB01220221F6
:10570000D0E701220421CDE701220821CAE70122C6
:105710001021C7E701222021C4E701224021C1E76F
:1057200001228021BEE701222946BBE7002239463B
:10573000B8E7F0BC704700000018024000100240BB
:10574000001402401B4A362826D008DCA0F13100A4
:1057500005282DD2DFE800F015171A1C1E00472877
:105760001ED006DC372819D0382821D14FF480719B
:105770000AE04C2819D052281AD14FF400610E4883
:1057800011E0022100E0042110460CE00821FBE7B3
:105790001021F9E72021F7E74021F5E78021F3E721
:1057A0004FF480410548FDF7B4BA4FF40051EBE7E0
:1057B0007047000000180240001002400014024030
:1057C000FDF7C2FAFFF742FAFEF774FDFFF720F883
:1057D000FFF73AF8FEF730FDFFF752F8FFF772F8DF
:1057E000FEF73AFEFEF75EFEFEF7DEFCFEF700FD7A
:1057F000FEF79CFEFEF7B6FFFEF716FFFEF778FFFA
:10580000FCF7D8FA9FED0E0B0F4C53EC102B94EDD8
:10581000000B51EC100B00F0EFF941EC100B84ED94
:10582000000B00F0F5FB002300B21A461946FFF703
:10583000B5F900BFFCF750F90520FDF73BF9F9E792
:10584000000000000000244000000020AFF30080B2
:1058500000B58BB00020012103900490CDE9060132
:10586000CDE90810059000900190029069460B4820
:10587000FCF79AFB0948FCF71FFF02210748FCF7D9
:105880001DFB69460648FCF78FFB0548FCF714FF33
:1058900002210348FCF712FB0BB000BD40000020C2
:1058A0006800002010B504462DED028BB0EE408A52
:1058B000006D6065FDF73AFA206594F85410401ABF
:1058C00084F8580018EE100A00F042FE41EC100B6C
:1058D00084ED080BD4ED0A8A53EC102BC4ED0B8A2F
:1058E00094ED0F8A84ED108A94ED021B51EC110B9C
:1058F00000F044FD00F04EF900EE100A84ED0A0AB3
:10590000B5EEC00AF1EE10FA02DDF0EE400A01E059
:10591000F1EE400A94ED131AF4EEC10AF1EE10FA1A
:1059200055DBD4ED040A10EE100A2B4960EE800A14
:105930008842C4ED0C0A07DA94ED0D1AD4ED051A6D
:1059400001EE801A84ED0D1A30EE680A94ED061A05
:1059500020EE011A84ED0E1AD4ED0D1A94ED120A00
:10596000F4EEC01AF1EE10FA01DD84ED0D0AD4ED6B
:105970000D1AB1EE400AF4EEC01AF1EE10FA02D39D
:10598000B0EE610A01E084ED0D0A30EE800ADFED31
:10599000130A30EE010A20EE200ADFED110A08EEAC
:1059A000200A84ED0F0AD4ED110AB4EEE00AF1EEFC
:1059B00010FA01DDC4ED0F0A94ED0F1AB1EE600A82
:1059C000B4EEC01AF1EE10FA01D284ED0F0A94ED94
:1059D0000F0ABDEC028B10BD00007A443333333F15
:1059E0009A99993E0249C1650249016670470000D3
:1059F000F9590008A5580008017080ED130A00EE5F
:105A0000103AB8EE400A80ED120A00EE102AB8EE05
:105A1000400A80ED110A9FED040A80ED0F0A103054
:105A2000C0EC030A704700000000000010B5174AE0
:105A3000174C12882260A0F1310215480838072A55
:105A400020D2DFE802F00407101316191C004FF4EF
:105A5000EF6201E040F2A76202600846FDF72AF813
:105A60000020206010BD40F2ED52F5E74FF4B36224
:105A7000F2E740F2FB42EFE74FF48E62ECE74FF4BF
:105A80007D72E9E74FF4B472E6E7000028000020D9
:105A90003418004001461048312913D008DC012990
:105AA00010D0022911D0032912D0042913D105E006
:105AB00032290AD033290BD034290CD101222021DC
:105AC000FDF72FB901220421FAE701220821F7E7A7
:105AD00001221021F4E77047001C024070B5012438
